var app = angular.module('myApp', []);

app.controller('MainController', function($scope) {

    $scope.input = "8=FIX.4.1|9=61|35=A|34=1|49=EXEC|52=20121105-23:24:06|56=BANZAI|98=0|108=30|10=003|8=FIX.4.1|9=61|35=A|34=1|49=BANZAI|52=20121105-23:24:06|56=EXEC|98=0|108=30|10=003|8=FIX.4.1|9=49|35=0|34=2|49=BANZAI|52=20121105-23:24:37|56=EXEC|10=228|8=FIX.4.1|9=49|35=0|34=2|49=EXEC|52=20121105-23:24:37|56=BANZAI|10=228|8=FIX.4.1|9=103|35=D|34=3|49=BANZAI|52=20121105-23:24:42|56=EXEC|11=1352157882577|21=1|38=10000|40=1|54=1|55=MSFT|59=0|10=062|8=FIX.4.1|9=139|35=8|34=3|49=EXEC|52=20121105-23:24:42|56=BANZAI|6=0|11=1352157882577|14=0|17=1|20=0|31=0|32=0|37=1|38=10000|39=0|54=1|55=MSFT|150=2|151=0|10=059|8=FIX.4.1|9=153|35=8|34=4|49=EXEC|52=20121105-23:24:42|56=BANZAI|6=12.3|11=1352157882577|14=10000|17=2|20=0|31=12.3|32=10000|37=2|38=10000|39=2|54=1|55=MSFT|150=2|151=0|10=230|8=FIX.4.1|9=103|35=D|34=4|49=BANZAI|52=20121105-23:24:55|56=EXEC|11=1352157895032|21=1|38=10000|40=1|54=1|55=ORCL|59=0|10=047|8=FIX.4.1|9=139|35=8|34=5|49=EXEC|52=20121105-23:24:55|56=BANZAI|6=0|11=1352157895032|14=0|17=3|20=0|31=0|32=0|37=3|38=10000|39=0|54=1|55=ORCL|150=2|151=0|10=049|8=FIX.4.1|9=153|35=8|34=6|49=EXEC|52=20121105-23:24:55|56=BANZAI|6=12.3|11=1352157895032|14=10000|17=4|20=0|31=12.3|32=10000|37=4|38=10000|39=2|54=1|55=ORCL|150=2|151=0|10=220|8=FIX.4.1|9=108|35=D|34=5|49=BANZAI|52=20121105-23:25:12|56=EXEC|11=1352157912357|21=1|38=10000|40=2|44=10|54=1|55=SPY|59=0|10=003|8=FIX.4.1|9=138|35=8|34=7|49=EXEC|52=20121105-23:25:12|56=BANZAI|6=0|11=1352157912357|14=0|17=5|20=0|31=0|32=0|37=5|38=10000|39=0|54=1|55=SPY|150=2|151=0|10=252|8=FIX.4.1|9=104|35=F|34=6|49=BANZAI|52=20121105-23:25:16|56=EXEC|11=1352157916437|38=10000|41=1352157912357|54=1|55=SPY|10=198|8=FIX.4.1|9=82|35=3|34=8|49=EXEC|52=20121105-23:25:16|56=BANZAI|45=6|58=Unsupported message type|10=000|8=FIX.4.1|9=104|35=F|34=7|49=BANZAI|52=20121105-23:25:25|56=EXEC|11=1352157925309|38=10000|41=1352157912357|54=1|55=SPY|10=197|8=FIX.4.1|9=82|35=3|34=9|49=EXEC|52=20121105-23:25:25|56=BANZAI|45=7|58=Unsupported message type|10=002|";

    var fixMessages = [
        '8=FIX.4.1|9=112|35=0|49=BRKR|56=INVMGR|34=235|52=19980604-07:58:28|112=19980604-07:58:28|10=157|',
        '8=FIX.4.1|9=154|35=6|49=BRKR|56=INVMGR|34=236|52=19980604-07:58:48|23=115685|28=N|55=SPMI.MI|54=2|27=200000|44=10100.000000|25=H|10=159|',
        '8=FIX.4.1|9=90|35=0|49=INVMGR|56=BRKR|34=236|52=19980604-07:59:30|10=225|',
        '8=FIX.4.1|9=112|35=0|49=BRKR|56=INVMGR|34=237|52=19980604-07:59:48|112=19980604-07:59:48|10=225|',
        '8=FIX.4.1|9=154|35=6|49=BRKR|56=INVMGR|34=238|52=19980604-07:59:56|23=115686|28=N|55=FIA.MI|54=2|27=250000|44=7900.000000|25=H|10=231|',
        '8=FIX.4.1|9=90|35=0|49=INVMGR|56=BRKR|34=237|52=19980604-08:00:31|10=203|',
        '8=FIX.4.1|9=154|35=6|49=BRKR|56=INVMGR|34=239|52=19980604-08:00:36|23=115687|28=N|55=PIRI.MI|54=1|27=300000|44=5950.000000|25=H|10=168|',
        '8=FIX.4.1|9=90|35=0|49=INVMGR|56=BRKR|34=238|52=19980604-08:01:31|10=026|',
        '8=FIX.4.1|9=112|35=0|49=BRKR|56=INVMGR|34=240|52=19980604-08:01:36|112=19980604-08:01:36|10=190|',
        '8=FIX.4.1|9=90|35=0|49=INVMGR|56=BRKR|34=239|52=19980604-08:02:31|10=026|',
        '8=FIX.4.1|9=112|35=0|49=BRKR|56=INVMGR|34=241|52=19980604-08:02:36|112=19980604-08:02:36|10=018|',
        '8=FIX.4.1|9=90|35=0|49=INVMGR|56=BRKR|34=240|52=19980604-08:03:31|10=220|'
    ];

    $scope.parse = function(input) {
        var messages = FIXParser.extractMessages(input),
            delimiter = FIXParser.guessDelimiter(messages[0]);

        return messages.map(function(message) {
            return FIXParser.toJSON(message, delimiter);
        });
    };

    $scope.speedTest = function () {
        var startTime = new Date().getTime(),
            CYCLES = 1000,
            endTime,
            timeTaken,
            i;

        for (i = 0; i < CYCLES; i += 1) {
            $scope.parse($scope.input);
        }
        
        endTime = new Date().getTime();
        timeTaken = endTime - startTime;
        $scope.averageParseTime = 1000 * timeTaken / (CYCLES*16);
        console.log('parse time (microseconds):', $scope.averageParseTime);
        console.log('total time taken (ms)', timeTaken);
    };

    $scope.speedTest();

    $scope.output = $scope.parse($scope.input);

    fixMessages.map(function (fixMessage) {
        $scope.output = $scope.output.concat($scope.parse(fixMessage));
    });
});